{
  "_format": "hh-sol-artifact-1",
  "contractName": "AaveInteractionDelegate",
  "sourceName": "contracts/AaveInteraction.sol",
  "abi": [
    {
      "inputs": [
        {
          "internalType": "address",
          "name": "_poolProviderAddress",
          "type": "address"
        }
      ],
      "stateMutability": "nonpayable",
      "type": "constructor"
    },
    {
      "inputs": [
        {
          "internalType": "address",
          "name": "tokenAddress",
          "type": "address"
        },
        {
          "internalType": "uint256",
          "name": "amount",
          "type": "uint256"
        }
      ],
      "name": "approve",
      "outputs": [],
      "stateMutability": "nonpayable",
      "type": "function"
    },
    {
      "inputs": [
        {
          "internalType": "address",
          "name": "tokenAddress",
          "type": "address"
        },
        {
          "internalType": "uint256",
          "name": "amount",
          "type": "uint256"
        },
        {
          "internalType": "uint256",
          "name": "interestRateMode",
          "type": "uint256"
        }
      ],
      "name": "borrow",
      "outputs": [],
      "stateMutability": "nonpayable",
      "type": "function"
    },
    {
      "inputs": [
        {
          "internalType": "address",
          "name": "user",
          "type": "address"
        }
      ],
      "name": "getUserAccountData",
      "outputs": [
        {
          "internalType": "uint256",
          "name": "totalCollateralBase",
          "type": "uint256"
        },
        {
          "internalType": "uint256",
          "name": "totalDebtBase",
          "type": "uint256"
        },
        {
          "internalType": "uint256",
          "name": "availableBorrowsBase",
          "type": "uint256"
        },
        {
          "internalType": "uint256",
          "name": "currentLiquidationThreshold",
          "type": "uint256"
        },
        {
          "internalType": "uint256",
          "name": "ltv",
          "type": "uint256"
        },
        {
          "internalType": "uint256",
          "name": "healthFactor",
          "type": "uint256"
        }
      ],
      "stateMutability": "view",
      "type": "function"
    },
    {
      "inputs": [],
      "name": "owner",
      "outputs": [
        {
          "internalType": "address",
          "name": "",
          "type": "address"
        }
      ],
      "stateMutability": "view",
      "type": "function"
    },
    {
      "inputs": [],
      "name": "pool",
      "outputs": [
        {
          "internalType": "contract IPool",
          "name": "",
          "type": "address"
        }
      ],
      "stateMutability": "view",
      "type": "function"
    },
    {
      "inputs": [],
      "name": "poolProvider",
      "outputs": [
        {
          "internalType": "contract IPoolAddressesProvider",
          "name": "",
          "type": "address"
        }
      ],
      "stateMutability": "view",
      "type": "function"
    },
    {
      "inputs": [
        {
          "internalType": "address",
          "name": "tokenAddress",
          "type": "address"
        },
        {
          "internalType": "uint256",
          "name": "amount",
          "type": "uint256"
        },
        {
          "internalType": "uint256",
          "name": "interestRateMode",
          "type": "uint256"
        }
      ],
      "name": "repay",
      "outputs": [],
      "stateMutability": "nonpayable",
      "type": "function"
    },
    {
      "inputs": [
        {
          "internalType": "address",
          "name": "tokenAddress",
          "type": "address"
        },
        {
          "internalType": "uint256",
          "name": "amount",
          "type": "uint256"
        }
      ],
      "name": "supply",
      "outputs": [],
      "stateMutability": "payable",
      "type": "function"
    },
    {
      "inputs": [
        {
          "internalType": "address",
          "name": "tokenAddress",
          "type": "address"
        },
        {
          "internalType": "uint256",
          "name": "amount",
          "type": "uint256"
        }
      ],
      "name": "withdraw",
      "outputs": [],
      "stateMutability": "nonpayable",
      "type": "function"
    },
    {
      "stateMutability": "payable",
      "type": "receive"
    }
  ],
  "bytecode": "0x60a060405234801561001057600080fd5b50604051611434380380611434833981810160405281019061003291906101c0565b8073ffffffffffffffffffffffffffffffffffffffff1660808173ffffffffffffffffffffffffffffffffffffffff168152505060805173ffffffffffffffffffffffffffffffffffffffff1663026b1d5f6040518163ffffffff1660e01b8152600401602060405180830381865afa1580156100b3573d6000803e3d6000fd5b505050506040513d601f19601f820116820180604052508101906100d791906101c0565b600160006101000a81548173ffffffffffffffffffffffffffffffffffffffff021916908373ffffffffffffffffffffffffffffffffffffffff160217905550336000806101000a81548173ffffffffffffffffffffffffffffffffffffffff021916908373ffffffffffffffffffffffffffffffffffffffff160217905550506101ed565b600080fd5b600073ffffffffffffffffffffffffffffffffffffffff82169050919050565b600061018d82610162565b9050919050565b61019d81610182565b81146101a857600080fd5b50565b6000815190506101ba81610194565b92915050565b6000602082840312156101d6576101d561015d565b5b60006101e4848285016101ab565b91505092915050565b60805161122c61020860003960006102e6015261122c6000f3fe60806040526004361061008a5760003560e01c80638da5cb5b116100595780638da5cb5b1461013e578063bf92857c14610169578063c1bce0b7146101ab578063f2b9fdb8146101d4578063f3fef3a3146101f057610091565b8063095ea7b31461009657806316f0115b146100bf5780638598f9c3146100ea5780638cd2e0c71461011557610091565b3661009157005b600080fd5b3480156100a257600080fd5b506100bd60048036038101906100b89190610b11565b610219565b005b3480156100cb57600080fd5b506100d46102be565b6040516100e19190610bb0565b60405180910390f35b3480156100f657600080fd5b506100ff6102e4565b60405161010c9190610bec565b60405180910390f35b34801561012157600080fd5b5061013c60048036038101906101379190610c07565b610308565b005b34801561014a57600080fd5b506101536104fd565b6040516101609190610c69565b60405180910390f35b34801561017557600080fd5b50610190600480360381019061018b9190610c84565b610521565b6040516101a296959493929190610cc0565b60405180910390f35b3480156101b757600080fd5b506101d260048036038101906101cd9190610c07565b6105db565b005b6101ee60048036038101906101e99190610b11565b610732565b005b3480156101fc57600080fd5b5061021760048036038101906102129190610b11565b610927565b005b8173ffffffffffffffffffffffffffffffffffffffff1663095ea7b3600160009054906101000a900473ffffffffffffffffffffffffffffffffffffffff16836040518363ffffffff1660e01b8152600401610276929190610d21565b6020604051808303816000875af1158015610295573d6000803e3d6000fd5b505050506040513d601f19601f820116820180604052508101906102b99190610d82565b505050565b600160009054906101000a900473ffffffffffffffffffffffffffffffffffffffff1681565b7f000000000000000000000000000000000000000000000000000000000000000081565b8273ffffffffffffffffffffffffffffffffffffffff1663095ea7b3600160009054906101000a900473ffffffffffffffffffffffffffffffffffffffff16846040518363ffffffff1660e01b8152600401610365929190610d21565b6020604051808303816000875af1158015610384573d6000803e3d6000fd5b505050506040513d601f19601f820116820180604052508101906103a89190610d82565b50600063573ade8160e01b848484306040516024016103ca9493929190610daf565b604051602081830303815290604052907bffffffffffffffffffffffffffffffffffffffffffffffffffffffff19166020820180517bffffffffffffffffffffffffffffffffffffffffffffffffffffffff838183161783525050505090506000600160009054906101000a900473ffffffffffffffffffffffffffffffffffffffff1673ffffffffffffffffffffffffffffffffffffffff16826040516104729190610e65565b600060405180830381855af49150503d80600081146104ad576040519150601f19603f3d011682016040523d82523d6000602084013e6104b2565b606091505b50509050806104f6576040517f08c379a00000000000000000000000000000000000000000000000000000000081526004016104ed90610ed9565b60405180910390fd5b5050505050565b60008054906101000a900473ffffffffffffffffffffffffffffffffffffffff1681565b600080600080600080600160009054906101000a900473ffffffffffffffffffffffffffffffffffffffff1673ffffffffffffffffffffffffffffffffffffffff1663bf92857c886040518263ffffffff1660e01b81526004016105859190610c69565b60c060405180830381865afa1580156105a2573d6000803e3d6000fd5b505050506040513d601f19601f820116820180604052508101906105c69190610f0e565b95509550955095509550955091939550919395565b600063a415bcad60e01b8484846000306040516024016105ff959493929190610fe3565b604051602081830303815290604052907bffffffffffffffffffffffffffffffffffffffffffffffffffffffff19166020820180517bffffffffffffffffffffffffffffffffffffffffffffffffffffffff838183161783525050505090506000600160009054906101000a900473ffffffffffffffffffffffffffffffffffffffff1673ffffffffffffffffffffffffffffffffffffffff16826040516106a79190610e65565b600060405180830381855af49150503d80600081146106e2576040519150601f19603f3d011682016040523d82523d6000602084013e6106e7565b606091505b505090508061072b576040517f08c379a000000000000000000000000000000000000000000000000000000000815260040161072290611082565b60405180910390fd5b5050505050565b600063617ba03760e01b838330600060405160240161075494939291906110a2565b604051602081830303815290604052907bffffffffffffffffffffffffffffffffffffffffffffffffffffffff19166020820180517bffffffffffffffffffffffffffffffffffffffffffffffffffffffff838183161783525050505090508273ffffffffffffffffffffffffffffffffffffffff1663095ea7b3600160009054906101000a900473ffffffffffffffffffffffffffffffffffffffff16846040518363ffffffff1660e01b8152600401610810929190610d21565b6020604051808303816000875af115801561082f573d6000803e3d6000fd5b505050506040513d601f19601f820116820180604052508101906108539190610d82565b506000600160009054906101000a900473ffffffffffffffffffffffffffffffffffffffff1673ffffffffffffffffffffffffffffffffffffffff168260405161089d9190610e65565b600060405180830381855af49150503d80600081146108d8576040519150601f19603f3d011682016040523d82523d6000602084013e6108dd565b606091505b5050905080610921576040517f08c379a000000000000000000000000000000000000000000000000000000000815260040161091890611133565b60405180910390fd5b50505050565b60006369328dec60e01b83833060405160240161094693929190611153565b604051602081830303815290604052907bffffffffffffffffffffffffffffffffffffffffffffffffffffffff19166020820180517bffffffffffffffffffffffffffffffffffffffffffffffffffffffff838183161783525050505090506000600160009054906101000a900473ffffffffffffffffffffffffffffffffffffffff1673ffffffffffffffffffffffffffffffffffffffff16826040516109ee9190610e65565b600060405180830381855af49150503d8060008114610a29576040519150601f19603f3d011682016040523d82523d6000602084013e610a2e565b606091505b5050905080610a72576040517f08c379a0000000000000000000000000000000000000000000000000000000008152600401610a69906111d6565b60405180910390fd5b50505050565b600080fd5b600073ffffffffffffffffffffffffffffffffffffffff82169050919050565b6000610aa882610a7d565b9050919050565b610ab881610a9d565b8114610ac357600080fd5b50565b600081359050610ad581610aaf565b92915050565b6000819050919050565b610aee81610adb565b8114610af957600080fd5b50565b600081359050610b0b81610ae5565b92915050565b60008060408385031215610b2857610b27610a78565b5b6000610b3685828601610ac6565b9250506020610b4785828601610afc565b9150509250929050565b6000819050919050565b6000610b76610b71610b6c84610a7d565b610b51565b610a7d565b9050919050565b6000610b8882610b5b565b9050919050565b6000610b9a82610b7d565b9050919050565b610baa81610b8f565b82525050565b6000602082019050610bc56000830184610ba1565b92915050565b6000610bd682610b7d565b9050919050565b610be681610bcb565b82525050565b6000602082019050610c016000830184610bdd565b92915050565b600080600060608486031215610c2057610c1f610a78565b5b6000610c2e86828701610ac6565b9350506020610c3f86828701610afc565b9250506040610c5086828701610afc565b9150509250925092565b610c6381610a9d565b82525050565b6000602082019050610c7e6000830184610c5a565b92915050565b600060208284031215610c9a57610c99610a78565b5b6000610ca884828501610ac6565b91505092915050565b610cba81610adb565b82525050565b600060c082019050610cd56000830189610cb1565b610ce26020830188610cb1565b610cef6040830187610cb1565b610cfc6060830186610cb1565b610d096080830185610cb1565b610d1660a0830184610cb1565b979650505050505050565b6000604082019050610d366000830185610c5a565b610d436020830184610cb1565b9392505050565b60008115159050919050565b610d5f81610d4a565b8114610d6a57600080fd5b50565b600081519050610d7c81610d56565b92915050565b600060208284031215610d9857610d97610a78565b5b6000610da684828501610d6d565b91505092915050565b6000608082019050610dc46000830187610c5a565b610dd16020830186610cb1565b610dde6040830185610cb1565b610deb6060830184610c5a565b95945050505050565b600081519050919050565b600081905092915050565b60005b83811015610e28578082015181840152602081019050610e0d565b60008484015250505050565b6000610e3f82610df4565b610e498185610dff565b9350610e59818560208601610e0a565b80840191505092915050565b6000610e718284610e34565b915081905092915050565b600082825260208201905092915050565b7f52657061792064656c656761746563616c6c206661696c656400000000000000600082015250565b6000610ec3601983610e7c565b9150610ece82610e8d565b602082019050919050565b60006020820190508181036000830152610ef281610eb6565b9050919050565b600081519050610f0881610ae5565b92915050565b60008060008060008060c08789031215610f2b57610f2a610a78565b5b6000610f3989828a01610ef9565b9650506020610f4a89828a01610ef9565b9550506040610f5b89828a01610ef9565b9450506060610f6c89828a01610ef9565b9350506080610f7d89828a01610ef9565b92505060a0610f8e89828a01610ef9565b9150509295509295509295565b6000819050919050565b600060ff82169050919050565b6000610fcd610fc8610fc384610f9b565b610b51565b610fa5565b9050919050565b610fdd81610fb2565b82525050565b600060a082019050610ff86000830188610c5a565b6110056020830187610cb1565b6110126040830186610cb1565b61101f6060830185610fd4565b61102c6080830184610c5a565b9695505050505050565b7f426f72726f772064656c656761746563616c6c206661696c6564000000000000600082015250565b600061106c601a83610e7c565b915061107782611036565b602082019050919050565b6000602082019050818103600083015261109b8161105f565b9050919050565b60006080820190506110b76000830187610c5a565b6110c46020830186610cb1565b6110d16040830185610c5a565b6110de6060830184610fd4565b95945050505050565b7f537570706c792064656c656761746563616c6c206661696c6564000000000000600082015250565b600061111d601a83610e7c565b9150611128826110e7565b602082019050919050565b6000602082019050818103600083015261114c81611110565b9050919050565b60006060820190506111686000830186610c5a565b6111756020830185610cb1565b6111826040830184610c5a565b949350505050565b7f57697468647261772064656c656761746563616c6c206661696c656400000000600082015250565b60006111c0601c83610e7c565b91506111cb8261118a565b602082019050919050565b600060208201905081810360008301526111ef816111b3565b905091905056fea26469706673582212205566a5f1eaa6514d00dc9a63e19c75bc4b347407e93400580766b507713f366864736f6c634300081b0033",
  "linkReferences": {},
  "deployedLinkReferences": {}
}