{
  "_format": "hh-sol-artifact-1",
  "contractName": "UniswapIntegration",
  "sourceName": "contracts/UniswapInteraction.sol",
  "abi": [
    {
      "inputs": [
        {
          "internalType": "address",
          "name": "_uniswapRouter",
          "type": "address"
        }
      ],
      "stateMutability": "nonpayable",
      "type": "constructor"
    },
    {
      "anonymous": false,
      "inputs": [
        {
          "indexed": false,
          "internalType": "uint256",
          "name": "usdcAmount",
          "type": "uint256"
        },
        {
          "indexed": false,
          "internalType": "uint256",
          "name": "daiAmount",
          "type": "uint256"
        },
        {
          "indexed": false,
          "internalType": "uint256",
          "name": "liquidity",
          "type": "uint256"
        }
      ],
      "name": "LiquidityAdded",
      "type": "event"
    },
    {
      "anonymous": false,
      "inputs": [
        {
          "indexed": false,
          "internalType": "address",
          "name": "tokenA",
          "type": "address"
        },
        {
          "indexed": false,
          "internalType": "address",
          "name": "tokenB",
          "type": "address"
        },
        {
          "indexed": false,
          "internalType": "uint256",
          "name": "amountA",
          "type": "uint256"
        },
        {
          "indexed": false,
          "internalType": "uint256",
          "name": "amountB",
          "type": "uint256"
        },
        {
          "indexed": false,
          "internalType": "uint256",
          "name": "liquidity",
          "type": "uint256"
        }
      ],
      "name": "LiquidityAdded",
      "type": "event"
    },
    {
      "anonymous": false,
      "inputs": [
        {
          "indexed": false,
          "internalType": "address",
          "name": "tokenA",
          "type": "address"
        },
        {
          "indexed": false,
          "internalType": "address",
          "name": "tokenB",
          "type": "address"
        },
        {
          "indexed": false,
          "internalType": "uint256",
          "name": "amountA",
          "type": "uint256"
        },
        {
          "indexed": false,
          "internalType": "uint256",
          "name": "amountB",
          "type": "uint256"
        },
        {
          "indexed": false,
          "internalType": "uint256",
          "name": "liquidity",
          "type": "uint256"
        }
      ],
      "name": "LiquidityRemoved",
      "type": "event"
    },
    {
      "anonymous": false,
      "inputs": [
        {
          "indexed": true,
          "internalType": "address",
          "name": "sender",
          "type": "address"
        },
        {
          "indexed": false,
          "internalType": "uint256",
          "name": "amountIn",
          "type": "uint256"
        },
        {
          "indexed": false,
          "internalType": "uint256",
          "name": "amountOutMin",
          "type": "uint256"
        },
        {
          "indexed": false,
          "internalType": "address[]",
          "name": "path",
          "type": "address[]"
        },
        {
          "indexed": true,
          "internalType": "address",
          "name": "to",
          "type": "address"
        },
        {
          "indexed": false,
          "internalType": "uint256",
          "name": "deadline",
          "type": "uint256"
        },
        {
          "indexed": false,
          "internalType": "uint256[]",
          "name": "amounts",
          "type": "uint256[]"
        }
      ],
      "name": "TokensSwapped",
      "type": "event"
    },
    {
      "inputs": [],
      "name": "WETH",
      "outputs": [
        {
          "internalType": "address",
          "name": "",
          "type": "address"
        }
      ],
      "stateMutability": "view",
      "type": "function"
    },
    {
      "inputs": [
        {
          "internalType": "address",
          "name": "tokenA",
          "type": "address"
        },
        {
          "internalType": "address",
          "name": "tokenB",
          "type": "address"
        },
        {
          "internalType": "uint256",
          "name": "amountADesired",
          "type": "uint256"
        },
        {
          "internalType": "uint256",
          "name": "amountBDesired",
          "type": "uint256"
        },
        {
          "internalType": "uint256",
          "name": "slippagePercent",
          "type": "uint256"
        }
      ],
      "name": "addLiquidity",
      "outputs": [],
      "stateMutability": "nonpayable",
      "type": "function"
    },
    {
      "inputs": [
        {
          "internalType": "address",
          "name": "token",
          "type": "address"
        },
        {
          "internalType": "uint256",
          "name": "amountTokenDesired",
          "type": "uint256"
        },
        {
          "internalType": "uint256",
          "name": "amountTokenMin",
          "type": "uint256"
        },
        {
          "internalType": "uint256",
          "name": "amountETHMin",
          "type": "uint256"
        },
        {
          "internalType": "uint256",
          "name": "slippagePercent",
          "type": "uint256"
        }
      ],
      "name": "addLiquidityEth",
      "outputs": [],
      "stateMutability": "payable",
      "type": "function"
    },
    {
      "inputs": [],
      "name": "owner",
      "outputs": [
        {
          "internalType": "address",
          "name": "",
          "type": "address"
        }
      ],
      "stateMutability": "view",
      "type": "function"
    },
    {
      "inputs": [
        {
          "internalType": "address",
          "name": "tokenA",
          "type": "address"
        },
        {
          "internalType": "address",
          "name": "tokenB",
          "type": "address"
        },
        {
          "internalType": "uint256",
          "name": "liquidity",
          "type": "uint256"
        },
        {
          "internalType": "uint256",
          "name": "amountAMin",
          "type": "uint256"
        },
        {
          "internalType": "uint256",
          "name": "amountBMin",
          "type": "uint256"
        },
        {
          "internalType": "uint256",
          "name": "slippagePercent",
          "type": "uint256"
        }
      ],
      "name": "removeLiquidity",
      "outputs": [],
      "stateMutability": "nonpayable",
      "type": "function"
    },
    {
      "inputs": [
        {
          "internalType": "uint256",
          "name": "amountIn",
          "type": "uint256"
        },
        {
          "internalType": "uint256",
          "name": "amountOutMin",
          "type": "uint256"
        },
        {
          "internalType": "address[]",
          "name": "path",
          "type": "address[]"
        },
        {
          "internalType": "address",
          "name": "to",
          "type": "address"
        },
        {
          "internalType": "uint256",
          "name": "deadline",
          "type": "uint256"
        }
      ],
      "name": "swapExactTokensForTokens",
      "outputs": [
        {
          "internalType": "uint256[]",
          "name": "amounts",
          "type": "uint256[]"
        }
      ],
      "stateMutability": "nonpayable",
      "type": "function"
    },
    {
      "inputs": [],
      "name": "uniswapRouter",
      "outputs": [
        {
          "internalType": "contract IUniswapV2Router02",
          "name": "",
          "type": "address"
        }
      ],
      "stateMutability": "view",
      "type": "function"
    }
  ],
  "bytecode": "0x60c060405234801561001057600080fd5b506040516121fb3803806121fb8339818101604052810190610032919061010f565b8073ffffffffffffffffffffffffffffffffffffffff1660808173ffffffffffffffffffffffffffffffffffffffff1681525050336000806101000a81548173ffffffffffffffffffffffffffffffffffffffff021916908373ffffffffffffffffffffffffffffffffffffffff1602179055505061013c565b600080fd5b600073ffffffffffffffffffffffffffffffffffffffff82169050919050565b60006100dc826100b1565b9050919050565b6100ec816100d1565b81146100f757600080fd5b50565b600081519050610109816100e3565b92915050565b600060208284031215610125576101246100ac565b5b6000610133848285016100fa565b91505092915050565b60805160a0516120466101b560003960008181610fc60152818161108701526111a90152600081816102d001528181610353015281816104c0015281816106d80152818161075e0152818161085f01528181610a5e01528181610afd01528181610b8501528181610f010152610f8901526120466000f3fe6080604052600436106100705760003560e01c80638da5cb5b1161004e5780638da5cb5b1461010657806391c98a2a14610131578063943c95ed1461015a578063ad5c46481461017657610070565b806338ed17391461007557806344483d53146100b2578063735de9f7146100db575b600080fd5b34801561008157600080fd5b5061009c600480360381019061009791906112d8565b6101a1565b6040516100a99190611430565b60405180910390f35b3480156100be57600080fd5b506100d960048036038101906100d49190611452565b610477565b005b3480156100e757600080fd5b506100f061085d565b6040516100fd919061153e565b60405180910390f35b34801561011257600080fd5b5061011b610881565b6040516101289190611568565b60405180910390f35b34801561013d57600080fd5b5061015860048036038101906101539190611583565b6108a5565b005b610174600480360381019061016f91906115fe565b610db0565b005b34801561018257600080fd5b5061018b6111a7565b6040516101989190611568565b60405180910390f35b6060848460008181106101b7576101b6611679565b5b90506020020160208101906101cc91906116a8565b73ffffffffffffffffffffffffffffffffffffffff166323b872dd33308a6040518463ffffffff1660e01b8152600401610208939291906116e4565b6020604051808303816000875af1158015610227573d6000803e3d6000fd5b505050506040513d601f19601f8201168201806040525081019061024b9190611753565b61028a576040517f08c379a0000000000000000000000000000000000000000000000000000000008152600401610281906117dd565b60405180910390fd5b8484600081811061029e5761029d611679565b5b90506020020160208101906102b391906116a8565b73ffffffffffffffffffffffffffffffffffffffff1663095ea7b37f0000000000000000000000000000000000000000000000000000000000000000896040518363ffffffff1660e01b815260040161030d9291906117fd565b6020604051808303816000875af115801561032c573d6000803e3d6000fd5b505050506040513d601f19601f820116820180604052508101906103509190611753565b507f000000000000000000000000000000000000000000000000000000000000000073ffffffffffffffffffffffffffffffffffffffff166338ed17398888888888886040518763ffffffff1660e01b81526004016103b4969594939291906118e9565b6000604051808303816000875af11580156103d3573d6000803e3d6000fd5b505050506040513d6000823e3d601f19601f820116820180604052508101906103fc9190611aa9565b90508273ffffffffffffffffffffffffffffffffffffffff163373ffffffffffffffffffffffffffffffffffffffff167f0b8eef2a6b6f2c849255c02f0db00a3bafe69c6267972942fc7e11d37bbfdb0f89898989888860405161046596959493929190611af2565b60405180910390a39695505050505050565b6103e88111156104bc576040517f08c379a00000000000000000000000000000000000000000000000000000000081526004016104b390611ba1565b60405180910390fd5b60007f000000000000000000000000000000000000000000000000000000000000000073ffffffffffffffffffffffffffffffffffffffff1663c45a01556040518163ffffffff1660e01b8152600401602060405180830381865afa158015610529573d6000803e3d6000fd5b505050506040513d601f19601f8201168201806040525081019061054d9190611bd6565b73ffffffffffffffffffffffffffffffffffffffff1663e6a4390588886040518363ffffffff1660e01b8152600401610587929190611c03565b602060405180830381865afa1580156105a4573d6000803e3d6000fd5b505050506040513d601f19601f820116820180604052508101906105c89190611bd6565b9050600073ffffffffffffffffffffffffffffffffffffffff168173ffffffffffffffffffffffffffffffffffffffff1603610639576040517f08c379a000000000000000000000000000000000000000000000000000000000815260040161063090611c78565b60405180910390fd5b8073ffffffffffffffffffffffffffffffffffffffff166323b872dd3330886040518463ffffffff1660e01b8152600401610676939291906116e4565b6020604051808303816000875af1158015610695573d6000803e3d6000fd5b505050506040513d601f19601f820116820180604052508101906106b99190611753565b508073ffffffffffffffffffffffffffffffffffffffff1663095ea7b37f0000000000000000000000000000000000000000000000000000000000000000876040518363ffffffff1660e01b81526004016107159291906117fd565b6020604051808303816000875af1158015610734573d6000803e3d6000fd5b505050506040513d601f19601f820116820180604052508101906107589190611753565b506000807f000000000000000000000000000000000000000000000000000000000000000073ffffffffffffffffffffffffffffffffffffffff1663baa2abde8a8a8a8a8a33600f426107ab9190611cc7565b6040518863ffffffff1660e01b81526004016107cd9796959493929190611cfb565b60408051808303816000875af11580156107eb573d6000803e3d6000fd5b505050506040513d601f19601f8201168201806040525081019061080f9190611d6a565b915091507fbc7d19d505c7ec4db83f3b51f19fb98c4c8a99922e7839d1ee608dfbee29501b898984848b60405161084a959493929190611daa565b60405180910390a1505050505050505050565b7f000000000000000000000000000000000000000000000000000000000000000081565b60008054906101000a900473ffffffffffffffffffffffffffffffffffffffff1681565b6103e88111156108ea576040517f08c379a00000000000000000000000000000000000000000000000000000000081526004016108e190611ba1565b60405180910390fd5b8473ffffffffffffffffffffffffffffffffffffffff166323b872dd3330866040518463ffffffff1660e01b8152600401610927939291906116e4565b6020604051808303816000875af1158015610946573d6000803e3d6000fd5b505050506040513d601f19601f8201168201806040525081019061096a9190611753565b508373ffffffffffffffffffffffffffffffffffffffff166323b872dd3330856040518463ffffffff1660e01b81526004016109a8939291906116e4565b6020604051808303816000875af11580156109c7573d6000803e3d6000fd5b505050506040513d601f19601f820116820180604052508101906109eb9190611753565b506000612710826127106109ff9190611dfd565b85610a0a9190611e31565b610a149190611ea2565b9050600061271083612710610a299190611dfd565b85610a349190611e31565b610a3e9190611ea2565b90508673ffffffffffffffffffffffffffffffffffffffff1663095ea7b37f0000000000000000000000000000000000000000000000000000000000000000876040518363ffffffff1660e01b8152600401610a9b9291906117fd565b6020604051808303816000875af1158015610aba573d6000803e3d6000fd5b505050506040513d601f19601f82011682018060405250810190610ade9190611753565b508573ffffffffffffffffffffffffffffffffffffffff1663095ea7b37f0000000000000000000000000000000000000000000000000000000000000000866040518363ffffffff1660e01b8152600401610b3a9291906117fd565b6020604051808303816000875af1158015610b59573d6000803e3d6000fd5b505050506040513d601f19601f82011682018060405250810190610b7d9190611753565b5060008060007f000000000000000000000000000000000000000000000000000000000000000073ffffffffffffffffffffffffffffffffffffffff1663e8e337008b8b8b8b8a8a30600f42610bd39190611cc7565b6040518963ffffffff1660e01b8152600401610bf6989796959493929190611ed3565b6060604051808303816000875af1158015610c15573d6000803e3d6000fd5b505050506040513d601f19601f82011682018060405250810190610c399190611f51565b9250925092507f4a1a2a6176e9646d9e3157f7c2ab3c499f18337c0b0828cfb28e0a61de4a11f78a8a858585604051610c76959493929190611daa565b60405180910390a187831015610d11578973ffffffffffffffffffffffffffffffffffffffff1663a9059cbb33858b610caf9190611dfd565b6040518363ffffffff1660e01b8152600401610ccc9291906117fd565b6020604051808303816000875af1158015610ceb573d6000803e3d6000fd5b505050506040513d601f19601f82011682018060405250810190610d0f9190611753565b505b86821015610da4578873ffffffffffffffffffffffffffffffffffffffff1663a9059cbb33848a610d429190611dfd565b6040518363ffffffff1660e01b8152600401610d5f9291906117fd565b6020604051808303816000875af1158015610d7e573d6000803e3d6000fd5b505050506040513d601f19601f82011682018060405250810190610da29190611753565b505b50505050505050505050565b6103e8811115610df5576040517f08c379a0000000000000000000000000000000000000000000000000000000008152600401610dec90611ba1565b60405180910390fd5b81341015610e38576040517f08c379a0000000000000000000000000000000000000000000000000000000008152600401610e2f90611ff0565b60405180910390fd5b8473ffffffffffffffffffffffffffffffffffffffff166323b872dd3330876040518463ffffffff1660e01b8152600401610e75939291906116e4565b6020604051808303816000875af1158015610e94573d6000803e3d6000fd5b505050506040513d601f19601f82011682018060405250810190610eb89190611753565b50600061271082612710610ecc9190611dfd565b86610ed79190611e31565b610ee19190611ea2565b90508573ffffffffffffffffffffffffffffffffffffffff1663095ea7b37f0000000000000000000000000000000000000000000000000000000000000000876040518363ffffffff1660e01b8152600401610f3e9291906117fd565b6020604051808303816000875af1158015610f5d573d6000803e3d6000fd5b505050506040513d601f19601f82011682018060405250810190610f819190611753565b5060008060007f000000000000000000000000000000000000000000000000000000000000000073ffffffffffffffffffffffffffffffffffffffff1663e8e337008a7f00000000000000000000000000000000000000000000000000000000000000008b34898c30600f42610ff79190611cc7565b6040518963ffffffff1660e01b815260040161101a989796959493929190611ed3565b6060604051808303816000875af1158015611039573d6000803e3d6000fd5b505050506040513d601f19601f8201168201806040525081019061105d9190611f51565b9250925092507f4a1a2a6176e9646d9e3157f7c2ab3c499f18337c0b0828cfb28e0a61de4a11f7897f00000000000000000000000000000000000000000000000000000000000000008585856040516110ba959493929190611daa565b60405180910390a187831115611155578873ffffffffffffffffffffffffffffffffffffffff1663a9059cbb338a866110f39190611dfd565b6040518363ffffffff1660e01b81526004016111109291906117fd565b6020604051808303816000875af115801561112f573d6000803e3d6000fd5b505050506040513d601f19601f820116820180604052508101906111539190611753565b505b3373ffffffffffffffffffffffffffffffffffffffff166108fc479081150290604051600060405180830381858888f1935050505015801561119b573d6000803e3d6000fd5b50505050505050505050565b7f000000000000000000000000000000000000000000000000000000000000000081565b6000604051905090565b600080fd5b600080fd5b6000819050919050565b6111f2816111df565b81146111fd57600080fd5b50565b60008135905061120f816111e9565b92915050565b600080fd5b600080fd5b600080fd5b60008083601f84011261123a57611239611215565b5b8235905067ffffffffffffffff8111156112575761125661121a565b5b6020830191508360208202830111156112735761127261121f565b5b9250929050565b600073ffffffffffffffffffffffffffffffffffffffff82169050919050565b60006112a58261127a565b9050919050565b6112b58161129a565b81146112c057600080fd5b50565b6000813590506112d2816112ac565b92915050565b60008060008060008060a087890312156112f5576112f46111d5565b5b600061130389828a01611200565b965050602061131489828a01611200565b955050604087013567ffffffffffffffff811115611335576113346111da565b5b61134189828a01611224565b9450945050606061135489828a016112c3565b925050608061136589828a01611200565b9150509295509295509295565b600081519050919050565b600082825260208201905092915050565b6000819050602082019050919050565b6113a7816111df565b82525050565b60006113b9838361139e565b60208301905092915050565b6000602082019050919050565b60006113dd82611372565b6113e7818561137d565b93506113f28361138e565b8060005b8381101561142357815161140a88826113ad565b9750611415836113c5565b9250506001810190506113f6565b5085935050505092915050565b6000602082019050818103600083015261144a81846113d2565b905092915050565b60008060008060008060c0878903121561146f5761146e6111d5565b5b600061147d89828a016112c3565b965050602061148e89828a016112c3565b955050604061149f89828a01611200565b94505060606114b089828a01611200565b93505060806114c189828a01611200565b92505060a06114d289828a01611200565b9150509295509295509295565b6000819050919050565b60006115046114ff6114fa8461127a565b6114df565b61127a565b9050919050565b6000611516826114e9565b9050919050565b60006115288261150b565b9050919050565b6115388161151d565b82525050565b6000602082019050611553600083018461152f565b92915050565b6115628161129a565b82525050565b600060208201905061157d6000830184611559565b92915050565b600080600080600060a0868803121561159f5761159e6111d5565b5b60006115ad888289016112c3565b95505060206115be888289016112c3565b94505060406115cf88828901611200565b93505060606115e088828901611200565b92505060806115f188828901611200565b9150509295509295909350565b600080600080600060a0868803121561161a576116196111d5565b5b6000611628888289016112c3565b955050602061163988828901611200565b945050604061164a88828901611200565b935050606061165b88828901611200565b925050608061166c88828901611200565b9150509295509295909350565b7f4e487b7100000000000000000000000000000000000000000000000000000000600052603260045260246000fd5b6000602082840312156116be576116bd6111d5565b5b60006116cc848285016112c3565b91505092915050565b6116de816111df565b82525050565b60006060820190506116f96000830186611559565b6117066020830185611559565b61171360408301846116d5565b949350505050565b60008115159050919050565b6117308161171b565b811461173b57600080fd5b50565b60008151905061174d81611727565b92915050565b600060208284031215611769576117686111d5565b5b60006117778482850161173e565b91505092915050565b600082825260208201905092915050565b7f5472616e73666572206f6620746f6b656e206661696c65640000000000000000600082015250565b60006117c7601883611780565b91506117d282611791565b602082019050919050565b600060208201905081810360008301526117f6816117ba565b9050919050565b60006040820190506118126000830185611559565b61181f60208301846116d5565b9392505050565b600082825260208201905092915050565b6000819050919050565b61184a8161129a565b82525050565b600061185c8383611841565b60208301905092915050565b600061187760208401846112c3565b905092915050565b6000602082019050919050565b60006118988385611826565b93506118a382611837565b8060005b858110156118dc576118b98284611868565b6118c38882611850565b97506118ce8361187f565b9250506001810190506118a7565b5085925050509392505050565b600060a0820190506118fe60008301896116d5565b61190b60208301886116d5565b818103604083015261191e81868861188c565b905061192d6060830185611559565b61193a60808301846116d5565b979650505050505050565b6000601f19601f8301169050919050565b7f4e487b7100000000000000000000000000000000000000000000000000000000600052604160045260246000fd5b61198e82611945565b810181811067ffffffffffffffff821117156119ad576119ac611956565b5b80604052505050565b60006119c06111cb565b90506119cc8282611985565b919050565b600067ffffffffffffffff8211156119ec576119eb611956565b5b602082029050602081019050919050565b600081519050611a0c816111e9565b92915050565b6000611a25611a20846119d1565b6119b6565b90508083825260208201905060208402830185811115611a4857611a4761121f565b5b835b81811015611a715780611a5d88826119fd565b845260208401935050602081019050611a4a565b5050509392505050565b600082601f830112611a9057611a8f611215565b5b8151611aa0848260208601611a12565b91505092915050565b600060208284031215611abf57611abe6111d5565b5b600082015167ffffffffffffffff811115611add57611adc6111da565b5b611ae984828501611a7b565b91505092915050565b600060a082019050611b0760008301896116d5565b611b1460208301886116d5565b8181036040830152611b2781868861188c565b9050611b3660608301856116d5565b8181036080830152611b4881846113d2565b9050979650505050505050565b7f536c69707061676520746f6f2068696768000000000000000000000000000000600082015250565b6000611b8b601183611780565b9150611b9682611b55565b602082019050919050565b60006020820190508181036000830152611bba81611b7e565b9050919050565b600081519050611bd0816112ac565b92915050565b600060208284031215611bec57611beb6111d5565b5b6000611bfa84828501611bc1565b91505092915050565b6000604082019050611c186000830185611559565b611c256020830184611559565b9392505050565b7f5061697220646f6573206e6f7420657869737400000000000000000000000000600082015250565b6000611c62601383611780565b9150611c6d82611c2c565b602082019050919050565b60006020820190508181036000830152611c9181611c55565b9050919050565b7f4e487b7100000000000000000000000000000000000000000000000000000000600052601160045260246000fd5b6000611cd2826111df565b9150611cdd836111df565b9250828201905080821115611cf557611cf4611c98565b5b92915050565b600060e082019050611d10600083018a611559565b611d1d6020830189611559565b611d2a60408301886116d5565b611d3760608301876116d5565b611d4460808301866116d5565b611d5160a0830185611559565b611d5e60c08301846116d5565b98975050505050505050565b60008060408385031215611d8157611d806111d5565b5b6000611d8f858286016119fd565b9250506020611da0858286016119fd565b9150509250929050565b600060a082019050611dbf6000830188611559565b611dcc6020830187611559565b611dd960408301866116d5565b611de660608301856116d5565b611df360808301846116d5565b9695505050505050565b6000611e08826111df565b9150611e13836111df565b9250828203905081811115611e2b57611e2a611c98565b5b92915050565b6000611e3c826111df565b9150611e47836111df565b9250828202611e55816111df565b91508282048414831517611e6c57611e6b611c98565b5b5092915050565b7f4e487b7100000000000000000000000000000000000000000000000000000000600052601260045260246000fd5b6000611ead826111df565b9150611eb8836111df565b925082611ec857611ec7611e73565b5b828204905092915050565b600061010082019050611ee9600083018b611559565b611ef6602083018a611559565b611f0360408301896116d5565b611f1060608301886116d5565b611f1d60808301876116d5565b611f2a60a08301866116d5565b611f3760c0830185611559565b611f4460e08301846116d5565b9998505050505050505050565b600080600060608486031215611f6a57611f696111d5565b5b6000611f78868287016119fd565b9350506020611f89868287016119fd565b9250506040611f9a868287016119fd565b9150509250925092565b7f496e73756666696369656e74204554482073656e740000000000000000000000600082015250565b6000611fda601583611780565b9150611fe582611fa4565b602082019050919050565b6000602082019050818103600083015261200981611fcd565b905091905056fea264697066735822122081d8077c9bbd40ea2d27a413381dab61f7f343a3a609e8310bc221d0003b4b4c64736f6c634300081b0033",
  "linkReferences": {},
  "deployedLinkReferences": {}
}